{
  "contractName": "Lottery",
  "abi": [
    {
      "inputs": [],
      "stateMutability": "nonpayable",
      "type": "constructor"
    },
    {
      "anonymous": false,
      "inputs": [
        {
          "indexed": false,
          "internalType": "address",
          "name": "player",
          "type": "address"
        },
        {
          "indexed": false,
          "internalType": "uint256",
          "name": "amount",
          "type": "uint256"
        }
      ],
      "name": "playerInvested",
      "type": "event"
    },
    {
      "anonymous": false,
      "inputs": [
        {
          "indexed": false,
          "internalType": "address",
          "name": "winner",
          "type": "address"
        },
        {
          "indexed": false,
          "internalType": "uint256",
          "name": "amount",
          "type": "uint256"
        }
      ],
      "name": "winnerSelected",
      "type": "event"
    },
    {
      "inputs": [],
      "name": "admin",
      "outputs": [
        {
          "internalType": "address",
          "name": "",
          "type": "address"
        }
      ],
      "stateMutability": "view",
      "type": "function",
      "constant": true
    },
    {
      "inputs": [
        {
          "internalType": "uint256",
          "name": "",
          "type": "uint256"
        }
      ],
      "name": "players",
      "outputs": [
        {
          "internalType": "address payable",
          "name": "",
          "type": "address"
        }
      ],
      "stateMutability": "view",
      "type": "function",
      "constant": true
    },
    {
      "inputs": [],
      "name": "invest",
      "outputs": [],
      "stateMutability": "payable",
      "type": "function",
      "payable": true
    },
    {
      "inputs": [],
      "name": "getBalance",
      "outputs": [
        {
          "internalType": "uint256",
          "name": "",
          "type": "uint256"
        }
      ],
      "stateMutability": "view",
      "type": "function",
      "constant": true
    },
    {
      "inputs": [],
      "name": "selectWinner",
      "outputs": [],
      "stateMutability": "nonpayable",
      "type": "function"
    }
  ],
  "bytecode": "0x608060405234801561001057600080fd5b50336000806101000a81548173ffffffffffffffffffffffffffffffffffffffff021916908373ffffffffffffffffffffffffffffffffffffffff160217905550610aac806100606000396000f3fe60806040526004361061004a5760003560e01c806312065fe01461004f57806333a99e041461007a578063e8b5e51f14610091578063f71d96cb1461009b578063f851a440146100d8575b600080fd5b34801561005b57600080fd5b50610064610103565b6040516100719190610643565b60405180910390f35b34801561008657600080fd5b5061008f610199565b005b610099610370565b005b3480156100a757600080fd5b506100c260048036038101906100bd919061068f565b6104e6565b6040516100cf91906106fd565b60405180910390f35b3480156100e457600080fd5b506100ed610525565b6040516100fa9190610739565b60405180910390f35b60003373ffffffffffffffffffffffffffffffffffffffff1660008054906101000a900473ffffffffffffffffffffffffffffffffffffffff1673ffffffffffffffffffffffffffffffffffffffff1614610193576040517f08c379a000000000000000000000000000000000000000000000000000000000815260040161018a906107b1565b60405180910390fd5b47905090565b3373ffffffffffffffffffffffffffffffffffffffff1660008054906101000a900473ffffffffffffffffffffffffffffffffffffffff1673ffffffffffffffffffffffffffffffffffffffff1614610227576040517f08c379a000000000000000000000000000000000000000000000000000000000815260040161021e906107b1565b60405180910390fd5b6000610231610549565b90506000600180549050826102469190610800565b905060006001828154811061025e5761025d610831565b5b9060005260206000200160009054906101000a900473ffffffffffffffffffffffffffffffffffffffff1690507f55f5b627439ea7e61a062304e180620655850a1483013dc935ea17f07f0c40ca81476040516102bc9291906108bf565b60405180910390a18073ffffffffffffffffffffffffffffffffffffffff166108fc479081150290604051600060405180830381858888f1935050505015801561030a573d6000803e3d6000fd5b50600067ffffffffffffffff811115610326576103256108e8565b5b6040519080825280602002602001820160405280156103545781602001602082028036833780820191505090505b506001908051906020019061036a929190610583565b50505050565b60008054906101000a900473ffffffffffffffffffffffffffffffffffffffff1673ffffffffffffffffffffffffffffffffffffffff163373ffffffffffffffffffffffffffffffffffffffff16036103fe576040517f08c379a00000000000000000000000000000000000000000000000000000000081526004016103f590610963565b60405180910390fd5b670429d069189e00003414610448576040517f08c379a000000000000000000000000000000000000000000000000000000000815260040161043f906109cf565b60405180910390fd5b6001339080600181540180825580915050600190039060005260206000200160009091909190916101000a81548173ffffffffffffffffffffffffffffffffffffffff021916908373ffffffffffffffffffffffffffffffffffffffff1602179055507fa8f643ea2fb97c81606ff796830b91e4514e5422e86401ea5ef4ab242f13338f33346040516104dc9291906109ef565b60405180910390a1565b600181815481106104f657600080fd5b906000526020600020016000915054906101000a900473ffffffffffffffffffffffffffffffffffffffff1681565b60008054906101000a900473ffffffffffffffffffffffffffffffffffffffff1681565b6000424460018054905060405160200161056593929190610a39565b6040516020818303038152906040528051906020012060001c905090565b8280548282559060005260206000209081019282156105fc579160200282015b828111156105fb5782518260006101000a81548173ffffffffffffffffffffffffffffffffffffffff021916908373ffffffffffffffffffffffffffffffffffffffff160217905550916020019190600101906105a3565b5b509050610609919061060d565b5090565b5b8082111561062657600081600090555060010161060e565b5090565b6000819050919050565b61063d8161062a565b82525050565b60006020820190506106586000830184610634565b92915050565b600080fd5b61066c8161062a565b811461067757600080fd5b50565b60008135905061068981610663565b92915050565b6000602082840312156106a5576106a461065e565b5b60006106b38482850161067a565b91505092915050565b600073ffffffffffffffffffffffffffffffffffffffff82169050919050565b60006106e7826106bc565b9050919050565b6106f7816106dc565b82525050565b600060208201905061071260008301846106ee565b92915050565b6000610723826106bc565b9050919050565b61073381610718565b82525050565b600060208201905061074e600083018461072a565b92915050565b600082825260208201905092915050565b7f4f6e6c792041646d696e2063616e2063616c6c2066756e6374696f6e00000000600082015250565b600061079b601c83610754565b91506107a682610765565b602082019050919050565b600060208201905081810360008301526107ca8161078e565b9050919050565b7f4e487b7100000000000000000000000000000000000000000000000000000000600052601260045260246000fd5b600061080b8261062a565b91506108168361062a565b925082610826576108256107d1565b5b828206905092915050565b7f4e487b7100000000000000000000000000000000000000000000000000000000600052603260045260246000fd5b6000819050919050565b600061088561088061087b846106bc565b610860565b6106bc565b9050919050565b60006108978261086a565b9050919050565b60006108a98261088c565b9050919050565b6108b98161089e565b82525050565b60006040820190506108d460008301856108b0565b6108e16020830184610634565b9392505050565b7f4e487b7100000000000000000000000000000000000000000000000000000000600052604160045260246000fd5b7f41646d696e2063616e6e6f7420696e7665737400000000000000000000000000600082015250565b600061094d601383610754565b915061095882610917565b602082019050919050565b6000602082019050818103600083015261097c81610940565b9050919050565b7f546f206a6f696e20696e76657374203320657468657200000000000000000000600082015250565b60006109b9601683610754565b91506109c482610983565b602082019050919050565b600060208201905081810360008301526109e8816109ac565b9050919050565b6000604082019050610a04600083018561072a565b610a116020830184610634565b9392505050565b6000819050919050565b610a33610a2e8261062a565b610a18565b82525050565b6000610a458286610a22565b602082019150610a558285610a22565b602082019150610a658284610a22565b60208201915081905094935050505056fea26469706673582212206dcb127271ab0907953ec3426c68e7d1f2a0c02d61b1ef816f91aee74ccfa84864736f6c63430008100033",
  "immutableReferences": {},
  "source": "//SPDX-License-Identifier: MIT\r\n\r\npragma solidity ^0.8.16;\r\n\r\ncontract Lottery{\r\n    address public admin;\r\n    address payable[] public players; //Because they can get money , I used \"payable\" \r\n\r\n    constructor() {\r\n        admin = msg.sender;  // Only \"admin\" is authorized\r\n    } \r\n\r\n    modifier onlyAdmin() {  // Admin's permissions\r\n        require(admin == msg.sender , \"Only Admin can call function\"); // Necessary limitations have been made with \"require\"\r\n        _; // Perform all below operations after \"require\" condition is met\r\n    }  \r\n\r\n    // \"event\" like logging\r\n    event playerInvested(address player , uint amount); // The amount of depositors will also be clearly reported\r\n    event winnerSelected(address winner , uint amount); \r\n\r\n\r\n    function invest() payable public { //Invest Money\r\n        require(msg.sender != admin, \"Admin cannot invest\");\r\n        //limit\r\n        require(msg.value == 0.3 ether , \"To join invest 3 ether\"); // Everyone who participates will deposit 3 ether\r\n        players.push(payable(msg.sender));  // Adding participants\r\n        emit playerInvested(msg.sender,msg.value);\r\n    }\r\n\r\n    function getBalance() public view onlyAdmin returns(uint) { // With \"getBalance\" method Admin will see all deposited money\r\n        return address(this).balance;\r\n\r\n\r\n    }\r\n\r\n    // A random number is generated to determine the winner\r\n    function random() private view returns(uint){ \r\n        return uint(keccak256(abi.encodePacked(block.timestamp, block.difficulty, players.length))); // Keccak : Hashing Algorithm , Generating a number by encoding the resulting \"abi\" value\r\n\r\n    }\r\n\r\n    function selectWinner() public onlyAdmin { // Only admin can choose the winner\r\n        uint r=random();\r\n        uint index=r%players.length;\r\n        address payable winner = players[index];\r\n        emit winnerSelected(winner, address(this).balance); // Winner selected by index\r\n        winner.transfer(address(this).balance); // Amount transferred\r\n        players= new address payable[](0); // Players reset\r\n\r\n\r\n\r\n\r\n    }\r\n}",
  "sourcePath": "C:\\Users\\UzayIsin\\Desktop\\Lottery\\contracts\\Lottery.sol",
  "compiler": {
    "name": "solc",
    "version": "0.8.16+commit.07a7930e.Emscripten.clang"
  },
  "schemaVersion": "3.4.9",
  "updatedAt": "2022-10-11T07:22:23.946Z",
  "networkType": "ethereum",
  "devdoc": {
    "kind": "dev",
    "methods": {},
    "version": 1
  },
  "userdoc": {
    "kind": "user",
    "methods": {},
    "version": 1
  }
}